:100000000C9446000C9465000C9465000C946500FB
:100010000C9465000C9465000C9465000C946500CC
:100020000C9465000C9465000C9465000C946500BC
:100030000C9465000C9465000C9465000C946500AC
:100040000C9465000C9465000C9465000C9465009C
:100050000C9465000C9465000C9465000C9465008C
:100060000C9465000C9465000C9465000C9465007C
:100070000C9465000C9465000C9465000C9465006C
:100080000C9465000C9465000C94650011241FBE4F
:10009000CFEFD0E4DEBFCDBF11E0A0E0B1E0E2EAF7
:1000A000F3E000E00BBF02C007900D92AE30B10745
:1000B000D9F721E0AEE0B1E001C01D92A031B20756
:1000C000E1F70E94B0010C94CF010C940000CF9393
:1000D000DF9300D01F92CDB7DEB789837B836A831D
:1000E00089818A3031F48A819B81BC018DE00E9434
:1000F000670080EC90E0FC018081882F90E08072A6
:100100009927892BB1F386EC90E02981FC012083AB
:1001100080E090E00F900F900F90DF91CF910895C5
:10012000CF93DF9300D01F92CDB7DEB788E290E087
:10013000FC018081898380E290E0FC018081882F2E
:1001400090E08170992721E0892B09F420E02A832F
:1001500080E290E0FC018081882F90E082709927F6
:1001600021E0892B09F420E02B8380910E019091EE
:100170000F018230910509F454C08330910528F4B1
:10018000009779F0019759F1B7C08430910509F4CF
:1001900086C08430910508F460C0059709F486C0D4
:1001A000ABC081E090E090930F0180930E018B81B2
:1001B000882331F082E090E090930F0180930E014C
:1001C0008B81882309F48FC08A81882309F48BC02E
:1001D00084E090E090930F0180930E0184C08A81A7
:1001E000882331F485E090E090930F0180930E0115
:1001F0008B81882339F48A81882321F010920F01A2
:1002000010920E018B81882309F46FC08A818823A4
:1002100009F46BC084E090E090930F0180930E018D
:1002200064C083E090E090930F0180930E018A8177
:10023000882321F010920F0110920E018B818823E8
:1002400009F455C08A81882309F451C084E090E004
:1002500090930F0180930E014AC08B81882331F463
:1002600085E090E090930F0180930E018A818823AE
:1002700049F48B81882331F082E090E090930F0164
:1002800080930E018B818823A1F18A81882389F1D3
:1002900084E090E090930F0180930E012AC085E0E6
:1002A00090E090930F0180930E0126C08A818823ED
:1002B00021F010920F0110920E018B81882331F0F2
:1002C00082E090E090930F0180930E018B81882350
:1002D00091F08A81882379F084E090E090930F0177
:1002E00080930E0108C0000007C0000005C0000098
:1002F00003C0000001C0000080910E0190910F0129
:1003000082309105A9F08330910518F4892B21F0F2
:1003100020C00497C9F01DC08981893018F48981F3
:100320008F5F898388E290E02981FC01208311C0DE
:100330008981882319F089818150898388E290E03E
:100340002981FC01208305C088E290E0FC01108235
:10035000000000000F900F900F90DF91CF91089553
:10036000CF93DF93CDB7DEB781E290E0FC0110823E
:1003700082E290E0FC01108287E290E02FEFFC0126
:10038000208388E290E027E0FC01208385E090E074
:1003900090930F0180930E010E949000FDCFF8947E
:0203A000FFCF8D
:0E03A2000000000200000000670000000000E4
:00000001FF
