:100000000C9446000C9465000C9465000C946500FB
:100010000C9465000C9465000C9465000C946500CC
:100020000C9465000C9465000C9465000C946500BC
:100030000C9465000C9465000C9465000C946500AC
:100040000C9465000C9465000C9465000C9465009C
:100050000C9465000C9465000C9465000C9465008C
:100060000C9465000C9465000C9465000C9465007C
:100070000C9465000C9465000C9465000C9465006C
:100080000C9465000C9465000C94650011241FBE4F
:10009000CFEFD0E4DEBFCDBF11E0A0E0B1E0ECE4F3
:1000A000F3E000E00BBF02C007900D92AE30B10745
:1000B000D9F721E0AEE0B1E001C01D92A031B20756
:1000C000E1F70E9485010C94A4010C940000CF93E9
:1000D000DF9300D01F92CDB7DEB789837B836A831D
:1000E00089818A3031F48A819B81BC018DE00E9434
:1000F000670080EC90E0FC018081882F90E08072A6
:100100009927892BB1F386EC90E02981FC012083AB
:1001100080E090E00F900F900F90DF91CF910895C5
:10012000CF93DF9300D01F92CDB7DEB788E290E087
:10013000FC018081898380E290E0FC018081882F2E
:1001400090E08170992721E0892B09F420E02A832F
:1001500080E290E0FC018081882F90E082709927F6
:1001600021E0892B09F420E02B8380910E019091EE
:100170000F018230910509F441C08330910528F4C4
:10018000009779F0019711F192C08430910509F43C
:1001900060C08430910508F446C0059709F460C03A
:1001A00086C081E090E090930F0180930E018B81D7
:1001B000882309F473C08A81882309F46FC084E01E
:1001C00090E090930F0180930E0168C08A8188238C
:1001D00031F485E090E090930F0180930E018B81C4
:1001E000882309F45DC08A81882309F459C084E01A
:1001F00090E090930F0180930E0152C083E090E055
:1002000090930F0180930E018B81882309F44AC0DB
:100210008A81882309F446C084E090E090930F011E
:1002200080930E013FC08B81882331F485E090E0FC
:1002300090930F0180930E018B818823A9F18A810D
:10024000882391F184E090E090930F0180930E0158
:100250002BC085E090E090930F0180930E0127C0A2
:100260008A81882329F010920F0110920E0109C093
:100270008B81882331F082E090E090930F0180938E
:100280000E018B81882391F08A81882379F084E0A4
:1002900090E090930F0180930E0108C0000007C00A
:1002A000000005C0000003C0000001C000008091F4
:1002B0000E0190910F018230910591F083309105EC
:1002C00018F4892B21F01AC0049799F017C089817E
:1002D0008F5F898388E290E02981FC0120830EC032
:1002E00089818150898388E290E02981FC01208303
:1002F00005C088E290E0FC011082000000000F9031
:100300000F900F90DF91CF910895CF93DF93CDB7EA
:10031000DEB781E290E0FC01108282E290E0FC0115
:10032000108287E290E02FEFFC01208388E290E0CA
:1003300027E0FC01208385E090E090930F018093FB
:0C0340000E010E949000FDCFF894FFCF4A
:0E034C0000000002000000006700000000003A
:00000001FF
