:100000000C9446000C9465000C9465000C946500FB
:100010000C9465000C9465000C9465000C946500CC
:100020000C9465000C9465000C9465000C946500BC
:100030000C9465000C9465000C9465000C946500AC
:100040000C9465000C9465000C9465000C9465009C
:100050000C9465000C9465000C9465000C9465008C
:100060000C9465000C9465000C9465000C9465007C
:100070000C9465000C9465000C9465000C9465006C
:100080000C9465000C9465000C94650011241FBE4F
:10009000CFEFD0E4DEBFCDBF11E0A0E0B1E0E2EEF3
:1000A000F2E000E00BBF02C007900D92AE30B10746
:1000B000D9F721E0AEE0B1E001C01D92A031B20756
:1000C000E1F70E9453010C946F010C940000CF9350
:1000D000DF9300D01F92CDB7DEB789837B836A831D
:1000E00089818A3031F48A819B81BC018DE00E9434
:1000F000670080EC90E0FC018081882F90E08072A6
:100100009927892BB1F386EC90E02981FC012083AB
:1001100080E090E00F900F900F90DF91CF910895C5
:10012000CF93DF93CDB7DEB780910E0190910F0191
:1001300081309105C9F08130910538F08230910508
:1001400099F1039709F44DC051C080E290E0FC01A1
:10015000908181E0943009F080E0882F90E09093C6
:100160000F0180930E0142C080E290E0FC0190817B
:1001700081E0943009F080E0882F90E090930F01A7
:1001800080930E0180E290E0FC018081882329F0B9
:1001900080910E0190910F0102C082E090E0909357
:1001A0000F0180930E0122C080E290E022E0FC016A
:1001B000208383E090E090930F0180930E0180E212
:1001C00090E0FC018081882329F080910E019091BC
:1001D0000F0102C082E090E090930F0180930E0126
:1001E00005C010920F0110920E01000080910E01C7
:1001F00090910F0181309105E9F08130910530F047
:100200008230910559F10397E9F149C085E290E008
:1002100020E230E0F9012081221F2227221F213015
:1002200029F025E230E0F901208101C020E0FC0145
:10023000208335C085E290E020E230E0F9012081A2
:10024000221F2227221F213029F025E230E0F90168
:10025000208101C020E0FC01208321C085E290E0E4
:1002600020E230E0F9012081221F2227221F2130C5
:1002700029F025E230E0F901208101C020E0FC01F5
:1002800020830DC085E290E025E230E0F901308165
:1002900021E0313009F420E0FC012083000000005F
:1002A000DF91CF910895CF93DF93CDB7DEB781E291
:1002B00090E0FC01108282E290E0FC01108284E276
:1002C00090E02FEFFC01208385E290E0FC0110829A
:1002D00010920F0110920E010E949000FDCFF89431
:0202E000FFCF4E
:0E02E2000000000200000000670000000000A5
:00000001FF
