:100000000C9446000C9465000C9465000C946500FB
:100010000C9465000C9465000C9465000C946500CC
:100020000C9465000C9465000C9465000C946500BC
:100030000C9465000C9465000C9465000C946500AC
:100040000C9465000C9465000C9465000C9465009C
:100050000C9465000C9465000C9465000C9465008C
:100060000C9465000C9465000C9465000C9465007C
:100070000C9465000C9465000C9465000C9465006C
:100080000C9465000C9465000C94650011241FBE4F
:10009000CFEFD0E4DEBFCDBF11E0A0E0B1E0E0E102
:1000A000F3E000E00BBF02C007900D92A231B10750
:1000B000D9F721E0A2E1B1E001C01D92A631B2075B
:1000C000E1F70E946A010C9486010C940000CF9322
:1000D000DF9300D01F92CDB7DEB789837B836A831D
:1000E00089818A3031F48A819B81BC018DE00E9434
:1000F000670080EC90E0FC018081882F90E08072A6
:100100009927892BB1F386EC90E02981FC012083AB
:1001100080E090E00F900F900F90DF91CF910895C5
:10012000CF93DF93CDB7DEB7809114019091150185
:1001300081309105D9F08130910538F082309105F8
:10014000C1F1039709F463C068C080E290E0FC014C
:10015000208190910E0181E0291709F080E0882F1D
:1001600090E0909315018093140157C080E290E0D5
:10017000FC018081882309F04FC082E090E09093D9
:100180001501809314018091120190911301019641
:1001900090931301809312018091120190911301A9
:1001A0000397D1F583E090E09093150180931401BB
:1001B00033C080E290E0FC01208180911201909197
:1001C0001301825F9E4FFC018081281741F010923D
:1001D000150110921401109213011092120181E086
:1001E00090E0909315018093140180E290E0FC016F
:1001F0008081882329F0809114019091150102C01B
:1002000082E090E0909315018093140106C0109253
:1002100015011092140101C0000080911401909109
:10022000150181309105E9F08130910530F082307F
:10023000910559F10397E9F149C085E290E020E288
:1002400030E0F9012081221F2227221F213029F0CE
:1002500025E230E0F901208101C020E0FC0120838B
:1002600035C085E290E020E230E0F9012081221FD4
:100270002227221F213029F025E230E0F9012081D8
:1002800001C020E0FC01208321C085E290E020E253
:1002900030E0F9012081221F2227221F213029F07E
:1002A00025E230E0F901208101C020E0FC0120833B
:1002B0000DC085E290E025E230E0F901308121E0D7
:1002C000313009F420E0FC01208300000000DF91C0
:1002D000CF910895CF93DF93CDB7DEB781E290E061
:1002E000FC01108282E290E0FC01108284E290E046
:1002F0002FEFFC01208385E290E0FC011082109238
:100300001501109214010E949000FDCFF894FFCFC8
:10031000000000020000000067000000000004016F
:020320000201D8
:00000001FF
