:100000000C9446000C9465000C9465000C946500FB
:100010000C9465000C9465000C9465000C946500CC
:100020000C9465000C9465000C9465000C946500BC
:100030000C9465000C9465000C9465000C946500AC
:100040000C9465000C9465000C9465000C9465009C
:100050000C9465000C9465000C9465000C9465008C
:100060000C9465000C9465000C9465000C9465007C
:100070000C9465000C9465000C9465000C9465006C
:100080000C9465000C9465000C94650011241FBE4F
:10009000CFEFD0E4DEBFCDBF11E0A0E0B1E0E0E003
:1000A000F2E000E00BBF02C007900D92AE30B10746
:1000B000D9F721E0AEE0B1E001C01D92A031B20756
:1000C000E1F70E94DF000C94FE000C940000CF9337
:1000D000DF9300D01F92CDB7DEB789837B836A831D
:1000E00089818A3031F48A819B81BC018DE00E9434
:1000F000670080EC90E0FC018081882F90E08072A6
:100100009927892BB1F386EC90E02981FC012083AB
:1001100080E090E00F900F900F90DF91CF910895C5
:10012000CF93DF931F92CDB7DEB785E290E0FC015D
:100130008081898380910E0190910F01813091051A
:10014000C9F08130910518F0029721F133C08981FF
:10015000823011F481E001C082E0898385E290E081
:100160002981FC01208381E090E090930F0180932E
:100170000E0120C080E290E0FC018081813019F402
:1001800081E090E002C082E090E090930F018093C4
:100190000E0110C080E290E0FC018081813019F4F2
:1001A00080E090E002C082E090E090930F018093A5
:1001B0000E01000000000F90DF91CF910895CF93C2
:1001C000DF93CDB7DEB781E290E0FC01108282E2DE
:1001D00090E0FC01108284E290E02FEFFC0120838C
:1001E00085E290E021E0FC01208382E090E09093A2
:1001F0000F0180930E010E949000FDCFF894FFCF75
:0E020000000000020000000067000000000087
:00000001FF
