:100000000C9446000C9465000C9465000C946500FB
:100010000C9465000C9465000C9465000C946500CC
:100020000C9465000C9465000C9465000C946500BC
:100030000C9465000C9465000C9465000C946500AC
:100040000C9465000C9465000C9465000C9465009C
:100050000C9465000C9465000C9465000C9465008C
:100060000C9465000C9465000C9465000C9465007C
:100070000C9465000C9465000C9465000C9465006C
:100080000C9465000C9465000C94650011241FBE4F
:10009000CFEFD0E4DEBFCDBF11E0A0E0B1E0E6E1FC
:1000A000F2E000E00BBF02C007900D92AE30B10746
:1000B000D9F721E0AEE0B1E001C01D92A031B20756
:1000C000E1F70E94EA000C9409010C940000CF9320
:1000D000DF9300D01F92CDB7DEB789837B836A831D
:1000E00089818A3031F48A819B81BC018DE00E9434
:1000F000670080EC90E0FC018081882F90E08072A6
:100100009927892BB1F386EC90E02981FC012083AB
:1001100080E090E00F900F900F90DF91CF910895C5
:10012000CF93DF931F92CDB7DEB785E290E0FC015D
:100130008081898380910E0190910F01813091051A
:1001400069F08130910518F00297C1F027C081E075
:1001500090E090930F0180930E0120C080E290E028
:10016000FC018081813019F481E090E002C082E0DE
:1001700090E090930F0180930E0110C080E290E018
:10018000FC018081813019F480E090E002C082E0BF
:1001900090E090930F0180930E01000080910E017A
:1001A00090910F018130910569F0019768F485E223
:1001B00090E02981223011F421E001C022E0FC010D
:1001C000208303C0000001C0000000000F90DF91F9
:1001D000CF910895CF93DF93CDB7DEB781E290E062
:1001E000FC01108282E290E0FC01108284E290E047
:1001F0002FEFFC01208385E290E021E0FC012083C9
:1002000082E090E090930F0180930E010E94900095
:06021000FDCFF894FFCFC2
:0E021600000000020000000067000000000071
:00000001FF
