:100000000C9446000C9465000C9465000C946500FB
:100010000C9465000C9465000C9465000C946500CC
:100020000C9465000C9465000C9465000C946500BC
:100030000C9465000C9465000C9465000C946500AC
:100040000C9465000C9465000C9465000C9465009C
:100050000C9465000C9465000C9465000C9465008C
:100060000C9465000C9465000C9465000C9465007C
:100070000C9465000C9465000C9465000C9465006C
:100080000C9465000C9465000C94650011241FBE4F
:10009000CFEFD0E4DEBFCDBF11E0A0E0B1E0E8E0FB
:1000A000F3E000E00BBF02C007900D92AE30B10745
:1000B000D9F721E0AEE0B1E001C01D92A031B20756
:1000C000E1F70E9465010C9482010C940000CF932B
:1000D000DF9300D01F92CDB7DEB789837B836A831D
:1000E00089818A3031F48A819B81BC018DE00E9434
:1000F000670080EC90E0FC018081882F90E08072A6
:100100009927892BB1F386EC90E02981FC012083AB
:1001100080E090E00F900F900F90DF91CF910895C5
:10012000CF93DF93CDB7DEB780910E0190910F0191
:100130008130910571F18130910540F08230910557
:1001400009F45BC0039709F489C09DC080E290E088
:10015000FC01908181E0943009F080E0882F90E0EC
:1001600090930F0180930E0180E290E0FC0180816A
:10017000881F8827881F813029F080910E01909177
:100180000F0102C080E090E090930F0180930E0178
:100190007AC080E290E0FC01908181E0943009F027
:1001A00080E0882F90E090930F0180930E0180E211
:1001B00090E0FC018081882329F080910E019091CC
:1001C0000F0102C082E090E090930F0180930E0136
:1001D00080E290E0FC018081881F8827881F8130A1
:1001E00029F080910E0190910F0102C080E090E013
:1001F00090930F0180930E0146C080E290E0FC01D5
:100200008081882329F080910E0190910F0102C016
:1002100082E090E090930F0180930E0180E290E0E5
:1002200022E0FC01208383E090E090930F01809313
:100230000E0180E290E0FC018081881F8827881FE2
:10024000813029F080910E0190910F0102C080E071
:1002500090E090930F0180930E0115C080E290E032
:10026000FC018081881F8827881F813029F08091B8
:100270000E0190910F0102C080E090E090930F0179
:1002800080930E01000080910E0190910F0181304A
:100290009105A1F08130910530F08230910581F017
:1002A000039731F00EC085E290E0FC01108209C096
:1002B00085E290E021E0FC01208303C0000001C042
:1002C00000000000DF91CF910895CF93DF93CDB769
:1002D000DEB781E290E0FC01108282E290E0FC0156
:1002E000108284E290E02FEFFC01208385E290E011
:1002F00027E0FC01208310920F0110920E010E9452
:080300009000FDCFF894FFCF3F
:0E03080000000002000000006700000000007E
:00000001FF
