:100000000C9446000C9465000C9465000C946500FB
:100010000C9465000C9465000C9465000C946500CC
:100020000C9465000C9465000C9465000C946500BC
:100030000C9465000C9465000C9465000C946500AC
:100040000C9465000C9465000C9465000C9465009C
:100050000C9465000C9465000C9465000C9465008C
:100060000C9465000C9465000C9465000C9465007C
:100070000C9465000C9465000C9465000C9465006C
:100080000C9465000C9465000C94650011241FBE4F
:10009000CFEFD0E4DEBFCDBF11E0A0E0B1E0E6E0FD
:1000A000F2E000E00BBF02C007900D92AE30B10746
:1000B000D9F721E0AEE0B1E001C01D92A031B20756
:1000C000E1F70E94E8000C9401010C940000CF932A
:1000D000DF9300D01F92CDB7DEB789837B836A831D
:1000E00089818A3031F48A819B81BC018DE00E9434
:1000F000670080EC90E0FC018081882F90E08072A6
:100100009927892BB1F386EC90E02981FC012083AB
:1001100080E090E00F900F900F90DF91CF910895C5
:10012000CF93DF931F92CDB7DEB785E290E0FC015D
:100130008081898380910E0190910F01813091051A
:1001400001F18130910518F0029741F132C085E24A
:1001500090E0FC018081823039F485E290E02981D1
:100160002695FC01208306C085E290E02981220FBC
:10017000FC01208381E090E090930F0180930E01B9
:1001800022C080E290E0FC0180818823C9F482E0F3
:1001900090E090930F0180930E0112C080E290E0F6
:1001A000FC018081813071F410920F0110920E01D8
:1001B00009C082E090E090930F0180930E0103C08C
:1001C000000001C0000000000F90DF91CF91089562
:1001D000CF93DF93CDB7DEB781E290E0FC011082D0
:1001E00082E290E0FC01108284E290E023E0FC01D6
:1001F000208385E290E021E0FC0120830E949000B2
:06020000FDCFF894FFCFD2
:0E020600000000020000000067000000000081
:00000001FF
