:100000000C9446000C9465000C9465000C946500FB
:100010000C9465000C9465000C9465000C946500CC
:100020000C9465000C9465000C9465000C946500BC
:100030000C9465000C9465000C9465000C946500AC
:100040000C9465000C9465000C9465000C9465009C
:100050000C9465000C9465000C9465000C9465008C
:100060000C9465000C9465000C9465000C9465007C
:100070000C9465000C9465000C9465000C9465006C
:100080000C9465000C9465000C94650011241FBE4F
:10009000CFEFD0E4DEBFCDBF11E0A0E0B1E0E4EBF4
:1000A000F3E000E00BBF02C007900D92AE30B10745
:1000B000D9F721E0AEE0B1E001C01D92A031B20756
:1000C000E1F70E94B9010C94D8010C940000CF9381
:1000D000DF9300D01F92CDB7DEB789837B836A831D
:1000E00089818A3031F48A819B81BC018DE00E9434
:1000F000670080EC90E0FC018081882F90E08072A6
:100100009927892BB1F386EC90E02981FC012083AB
:1001100080E090E00F900F900F90DF91CF910895C5
:10012000CF93DF9300D01F92CDB7DEB788E290E087
:10013000FC018081898380E290E0FC018081882F2E
:1001400090E08170992721E0892B09F420E02A832F
:1001500080E290E0FC018081882F90E082709927F6
:1001600021E0892B09F420E02B8380910E019091EE
:100170000F018230910509F450C08330910528F4B5
:10018000009779F0019759F1C0C08430910509F4C6
:1001900080C08430910508F45EC0059709F489C0D9
:1001A000B4C08A81882319F081E090E002C085E024
:1001B00090E090930F0180930E018B81882319F0BA
:1001C0008A81882329F480910E0190910F0102C049
:1001D00084E090E090930F0180930E0196C08A8195
:1001E000882319F081E090E002C085E090E09093D0
:1001F0000F0180930E018B81882319F08A81882357
:1002000029F480910E0190910F0102C084E090E0EA
:1002100090930F0180930E0178C08B81882319F091
:1002200083E090E002C085E090E090930F0180931E
:100230000E018B81882319F08A81882329F480910B
:100240000E0190910F0102C084E090E090930F01A5
:1002500080930E015AC08B81882319F083E090E0CF
:1002600002C085E090E090930F0180930E018B8196
:10027000882319F08A81882329F480910E019091B6
:100280000F0102C084E090E090930F0180930E0173
:100290003CC08B81882331F08A81882319F084E067
:1002A00090E002C085E090E090930F0180930E01F2
:1002B0002CC08B81882319F082E090E002C085E099
:1002C00090E090930F0180930E018A81882329F496
:1002D00080910E0190910F0102C080E090E0909318
:1002E0000F0180930E018B81882319F08A81882366
:1002F00029F480910E0190910F0102C084E090E0FA
:1003000090930F0180930E01000080910E01909157
:100310000F0182309105A9F08330910518F4892BE3
:1003200021F020C00497C9F01DC08981893018F4DC
:1003300089818F5F898388E290E02981FC01208395
:1003400011C08981882319F089818150898388E2CD
:1003500090E02981FC01208305C088E290E0FC0147
:100360001082000000000F900F900F90DF91CF914E
:100370000895CF93DF93CDB7DEB781E290E0FC0123
:10038000108282E290E0FC01108287E290E02FEF81
:10039000FC01208388E290E027E0FC01208385E0D7
:1003A00090E090930F0180930E010E949000FDCF8A
:0403B000F894FFCFEF
:0E03B4000000000200000000670000000000D2
:00000001FF
